:100000000C9446000C9465000C9465000C946500FB
:100010000C9465000C9465000C9465000C946500CC
:100020000C9465000C9465000C9465000C946500BC
:100030000C9465000C9465000C9465000C946500AC
:100040000C9465000C9465000C94D7030C949703F2
:100050000C9452030C9465000C9465000C9465009C
:100060000C9465000C9465000C9465000C9465007C
:100070000C9465000C9465000C9495040C94500449
:100080000C9407040C943B030C94650011241FBED0
:10009000CFEFD0E1DEBFCDBF11E0A0E0B1E0E4E5FD
:1000A000FAE000E00BBF02C007900D92A830B10744
:1000B000D9F723E0A8E0B1E001C01D92A235B20754
:1000C000E1F70E9402030C9428050C9400000E94A2
:1000D000BB048EE40E94CB04809108010E94CB04F3
:1000E0000C94C304909108019F7080FF01C090613F
:1000F0009093080181FF05C0909108019062909350
:10010000080182FF05C09091080190649093080156
:1001100083FF05C0809108018068809308010895DD
:10012000CF93C82F90910801946090930801829515
:100130008F700E9472000E946700909108019B7F5F
:10014000909308010E946700909108019460909339
:1001500008018C2F0E9472000E94670080910801A4
:100160008B7F809308010E9467008FE99FE00197D1
:10017000F1F700C00000CF910895909108019C7F95
:10018000909308010C9490009091080191609093D5
:1001900008010C949000CF93DF93EC0102C00E9401
:1001A000C40089918111FBCFDF91CF91089581E047
:1001B0000C94BD0090E4699F800D112480680C941C
:1001C000BD00809108018860809308010C9467004D
:1001D00080910801877F809308010C946700CF937A
:1001E0008FE295E70197F1F700C00000C3E083E0DC
:1001F0000E947200809108018460809308010E942F
:100200006700809108018B7F809308010E9467003E
:100210008FE39FE10197F1F700C00000C15039F76B
:1002200082E00E947200809108018460809308013E
:100230000E946700809108018B7F809308010E94D3
:1002400067008FEC97E00197F1F700C000008CE2A7
:100250000E94BD0088E00E94BD0081E00E94BD00B8
:100260008FE99FE00197F1F700C0000086E00E944F
:10027000BD008CE0CF910C94BD000E94800480935F
:10028000E7028091E702882331F08091E7020E9423
:100290005D031092E70208958091E8029091E902CF
:1002A0000D9754F00E94D70080E091E00E94CB00AF
:1002B0001092E9021092E80208951092E60210925C
:1002C000E50208950F931F93CF93DF938091E60289
:1002D0008235C9F48091E8029091E90202969093E8
:1002E000E9028093E8020E944C018091E6020E949C
:1002F00090008091E5020E9490008091E5020E94AA
:1003000012040E945D018091E6028134D9F480914B
:10031000E8029091E90202969093E9028093E80244
:100320000E944C018091E5020E9490008091E502BC
:100330008093DC0181E090E09093120180931101A1
:100340000E945D018091E6028335F1F48091E8021C
:100350009091E90202969093E9028093E8020E944C
:100360004C0182E70E9490008091E5020E9490007B
:100370008091E5028093DC0181E090E09093100190
:1003800080930F010E945D018091E602883509F09B
:100390005CC08091E502843509F057C080E090E0B0
:1003A000FC01E35EFD4F10820196883C9105C1F788
:1003B00010920A01109209018091E6020E949000B9
:1003C0008091E5020E949000C0E08FE19EE40197D9
:1003D000F1F700C000000E94BB048C2F0E94CB04E8
:1003E00080917100883189F4E0910901F0910A014E
:1003F000E35EFD4FC0832091090130910A012F5F18
:100400003F4F30930A01209309010E94C304CE5F3D
:10041000C038D9F6C0E0D0E00CC08E01035E1D4F9D
:10042000F80180810E949000F80180810E945D03A4
:1004300021968091090190910A01C817D9076CF3A0
:1004400083E60E945D030E945D01809111019091FD
:100450001201892BC1F08091E6028435A1F40E943B
:10046000BB048091DC010E94CB048091E5020E94D4
:10047000CB040E94C3041092120110921101109239
:10048000DC010E945D0180910F0190911001892B88
:1004900081F18091E602843461F58091E8029091C7
:1004A000E90201969093E9028093E8020E94BB045E
:1004B0008091DC010E94CB040E94BB048091DC018E
:1004C0008F5F0E94CB0480E00E94D504C82F0E9459
:1004D000C3041092100110920F011092DC018C2FB6
:1004E0000E945D038C2F0E9490000E945D010E947B
:1004F0004C018091E602873561F48091E50280939A
:10050000DC0181E090E090930E0180930D010E9448
:100510005D0180910D0190910E01892B19F180915F
:10052000E6028432F9F480910B0190910C01893C30
:100530009105C4F4E0910B01F0910C018091E5026A
:10054000ED5EFE4F80838091E5020E9490008091D5
:100550000B0190910C01019690930C0180930B017B
:100560000E945D018091E6028336A1F58091E5024B
:10057000833681F580910B0190910C010E949000CF
:1005800010920E0110920D010E94BB048091DC01BB
:100590000E94CB04C0E0D0E00AC08E010D5E1E4F69
:1005A000F80180810E94CB04F8011082219680918D
:1005B0000B0190910C01C817D9077CF30E94C3046A
:1005C00010920C0110920B01DF91CF911F910F91AE
:1005D0000C945D01DF91CF911F910F9108950E94BE
:1005E000C2038093DB018091DB01882351F080916D
:1005F000E5028093E6028091DB018093E502109290
:10060000DB01089583E390E00E94490383E390E0D7
:100610000E94FC0380E28093700078940E94EF00B7
:100620000E94E1000E94D70060E080E00E94DA00B2
:1006300084E091E00E94CB0080916F000E949000C6
:100640000E94EF020E9462010E943D01F9CFBC01AD
:1006500080E49FE10E94E304862F603148F0772711
:10066000CB01409797FF02C0CB010F9795958795D7
:100670008093700008951F920F920FB60F9211246D
:100680008F93809171008F910F900FBE0F901F90EC
:1006900018959093900089B988E98AB986E080938B
:1006A000950008951F920F920FB60F921124929801
:1006B0000F900FBE0F901F9018959091EA029F5FC8
:1006C0009F702091EB029217E1F3E92FF0E0E451E3
:1006D000FD4F80839093EA02559A0895CF93DF935C
:1006E000EC0102C00E945D0389918111FBCFDF9173
:1006F000CF910895CF93DF93CDB7DEB761970FB653
:10070000F894DEBF0FBECDBFAB01BE016F5F7F4F60
:100710000E94F704CE0101960E946E0361960FB607
:10072000F894DEBF0FBECDBFDF91CF9108951F9229
:100730000F920FB60F9211240BB60F928F939F93C7
:10074000EF93FF939091EA028091EB02981771F07A
:100750008091EB028F5F8F708093EB02E091EB0250
:10076000F0E0E451FD4F80818CB901C05598FF91B4
:10077000EF919F918F910F900BBE0F900FBE0F9036
:100780001F9018959091FC028091FD02981769F0D6
:100790008091FD028F5F8F718093FD02E091FD02D9
:1007A000F0E0E250FD4F8081089580E008951F92AF
:1007B0000F920FB60F9211240BB60F928F939F9347
:1007C000EF93FF938CB1E091FC02EF5FEF7190919A
:1007D000FD02E91731F0E093FC02F0E0E250FD4F3A
:1007E0008083FF91EF919F918F910F900BBE0F909F
:1007F0000FBE0F901F9018959093980080939900CA
:1008000088E980939A0086E080939D0008951F9266
:100810000F920FB60F92112492980F900FBE0F9067
:100820001F901895909151039F5F9F7020915003E6
:100830009217E1F3E92FF0E0E25EFC4F80839093A2
:10084000510380919A00806280939A000895CF931B
:10085000DF93EC0102C00E94120489918111FBCF49
:10086000DF91CF910895CF93DF93CDB7DEB7619736
:100870000FB6F894DEBF0FBECDBFAB01BE016F5FF8
:100880007F4F0E94F704CE0101960E9427046196D3
:100890000FB6F894DEBF0FBECDBFDF91CF910895A4
:1008A0001F920F920FB60F9211240BB60F928F93D7
:1008B0009F93EF93FF93909151038091500398176A
:1008C00079F0809150038F5F8F7080935003E09197
:1008D0005003F0E0E25EFC4F808180939C0005C0F5
:1008E00080919A008F7D80939A00FF91EF919F9164
:1008F0008F910F900BBE0F900FBE0F901F90189509
:1009000090912F0380912E03981769F080912E0308
:100910008F5F8F7180932E03E0912E03F0E0E05DF6
:10092000FC4F8081089580E008951F920F920FB6CA
:100930000F9211240BB60F928F939F93EF93FF9317
:1009400080919C00E0912F03EF5FEF7190912E0357
:10095000E91731F0E0932F03F0E0E05DFC4F808376
:10096000FF91EF919F918F910F900BBE0F900FBE53
:100970000F901F90189584EA809374008091740002
:1009800087FFFCCF089584E9809374008091740000
:1009900084FDFCCF08958093730084E880937400F5
:1009A0008091740087FFFCCF0895882311F084ECB8
:1009B00001C084E8809374008091740087FFFCCFAD
:1009C000809173000895AA1BBB1B51E107C0AA1FA9
:1009D000BB1FA617B70710F0A61BB70B881F991FE0
:1009E0005A95A9F780959095BC01CD010895FB011A
:1009F0009F01E8944230C4F04532B4F44A3029F4FF
:100A000097FB1EF4909581959F4F642F77270E9446
:100A1000E304805D8A330CF0895D8193CB010097FC
:100A2000A1F716F45DE251931082C9010C941805E8
:100A3000DC01FC01672F71917723E1F7329704C045
:100A40007C916D9370836291AE17BF07C8F30895D0
:040A5000F894FFCF48
:080A540052453A0052713A00CC
:00000001FF
